{
  "_format": "hh-sol-artifact-1",
  "contractName": "FarmInsurancePool",
  "sourceName": "contracts/FarmInsurancePool.sol",
  "abi": [
    {
      "inputs": [
        {
          "internalType": "address",
          "name": "_stableToken",
          "type": "address"
        }
      ],
      "stateMutability": "nonpayable",
      "type": "constructor"
    },
    {
      "anonymous": false,
      "inputs": [
        {
          "indexed": true,
          "internalType": "uint256",
          "name": "policyId",
          "type": "uint256"
        },
        {
          "indexed": false,
          "internalType": "uint8",
          "name": "stressLevel",
          "type": "uint8"
        },
        {
          "indexed": false,
          "internalType": "uint256",
          "name": "payoutPercentage",
          "type": "uint256"
        }
      ],
      "name": "OracleDataReceived",
      "type": "event"
    },
    {
      "anonymous": false,
      "inputs": [
        {
          "indexed": true,
          "internalType": "address",
          "name": "previousOwner",
          "type": "address"
        },
        {
          "indexed": true,
          "internalType": "address",
          "name": "newOwner",
          "type": "address"
        }
      ],
      "name": "OwnershipTransferred",
      "type": "event"
    },
    {
      "anonymous": false,
      "inputs": [
        {
          "indexed": true,
          "internalType": "uint256",
          "name": "policyId",
          "type": "uint256"
        },
        {
          "indexed": true,
          "internalType": "address",
          "name": "farmer",
          "type": "address"
        },
        {
          "indexed": false,
          "internalType": "uint256",
          "name": "amount",
          "type": "uint256"
        }
      ],
      "name": "PayoutExecuted",
      "type": "event"
    },
    {
      "anonymous": false,
      "inputs": [
        {
          "indexed": true,
          "internalType": "uint256",
          "name": "policyId",
          "type": "uint256"
        },
        {
          "indexed": true,
          "internalType": "address",
          "name": "farmer",
          "type": "address"
        },
        {
          "indexed": true,
          "internalType": "address",
          "name": "funder",
          "type": "address"
        },
        {
          "indexed": false,
          "internalType": "uint256",
          "name": "insuredAmount",
          "type": "uint256"
        },
        {
          "indexed": false,
          "internalType": "string",
          "name": "farmLocation",
          "type": "string"
        }
      ],
      "name": "PolicyCreated",
      "type": "event"
    },
    {
      "inputs": [
        {
          "internalType": "address",
          "name": "oracle",
          "type": "address"
        }
      ],
      "name": "authorizeOracle",
      "outputs": [],
      "stateMutability": "nonpayable",
      "type": "function"
    },
    {
      "inputs": [
        {
          "internalType": "address",
          "name": "",
          "type": "address"
        }
      ],
      "name": "authorizedOracles",
      "outputs": [
        {
          "internalType": "bool",
          "name": "",
          "type": "bool"
        }
      ],
      "stateMutability": "view",
      "type": "function"
    },
    {
      "inputs": [
        {
          "internalType": "address",
          "name": "farmer",
          "type": "address"
        },
        {
          "internalType": "uint256",
          "name": "insuredAmount",
          "type": "uint256"
        },
        {
          "internalType": "string",
          "name": "farmLocation",
          "type": "string"
        },
        {
          "internalType": "uint256",
          "name": "cropType",
          "type": "uint256"
        },
        {
          "internalType": "uint256",
          "name": "premiumAmount",
          "type": "uint256"
        }
      ],
      "name": "createPolicy",
      "outputs": [],
      "stateMutability": "nonpayable",
      "type": "function"
    },
    {
      "inputs": [
        {
          "internalType": "uint256",
          "name": "policyId",
          "type": "uint256"
        }
      ],
      "name": "executePayout",
      "outputs": [],
      "stateMutability": "nonpayable",
      "type": "function"
    },
    {
      "inputs": [
        {
          "internalType": "uint256",
          "name": "amount",
          "type": "uint256"
        }
      ],
      "name": "fundPool",
      "outputs": [],
      "stateMutability": "nonpayable",
      "type": "function"
    },
    {
      "inputs": [
        {
          "internalType": "uint256",
          "name": "policyId",
          "type": "uint256"
        }
      ],
      "name": "getOracleResult",
      "outputs": [
        {
          "components": [
            {
              "internalType": "bool",
              "name": "fulfilled",
              "type": "bool"
            },
            {
              "internalType": "uint8",
              "name": "stressLevel",
              "type": "uint8"
            },
            {
              "internalType": "uint256",
              "name": "payoutPercentage",
              "type": "uint256"
            },
            {
              "internalType": "uint256",
              "name": "timestamp",
              "type": "uint256"
            }
          ],
          "internalType": "struct FarmInsurancePool.OracleResult",
          "name": "",
          "type": "tuple"
        }
      ],
      "stateMutability": "view",
      "type": "function"
    },
    {
      "inputs": [
        {
          "internalType": "uint256",
          "name": "policyId",
          "type": "uint256"
        }
      ],
      "name": "getPolicy",
      "outputs": [
        {
          "components": [
            {
              "internalType": "address",
              "name": "farmer",
              "type": "address"
            },
            {
              "internalType": "address",
              "name": "funder",
              "type": "address"
            },
            {
              "internalType": "uint256",
              "name": "premium",
              "type": "uint256"
            },
            {
              "internalType": "uint256",
              "name": "insuredAmount",
              "type": "uint256"
            },
            {
              "internalType": "uint256",
              "name": "startDate",
              "type": "uint256"
            },
            {
              "internalType": "bool",
              "name": "active",
              "type": "bool"
            },
            {
              "internalType": "bool",
              "name": "paidOut",
              "type": "bool"
            },
            {
              "internalType": "string",
              "name": "farmLocation",
              "type": "string"
            },
            {
              "internalType": "uint256",
              "name": "cropType",
              "type": "uint256"
            }
          ],
          "internalType": "struct FarmInsurancePool.Policy",
          "name": "",
          "type": "tuple"
        }
      ],
      "stateMutability": "view",
      "type": "function"
    },
    {
      "inputs": [
        {
          "internalType": "uint256",
          "name": "",
          "type": "uint256"
        }
      ],
      "name": "oracleResults",
      "outputs": [
        {
          "internalType": "bool",
          "name": "fulfilled",
          "type": "bool"
        },
        {
          "internalType": "uint8",
          "name": "stressLevel",
          "type": "uint8"
        },
        {
          "internalType": "uint256",
          "name": "payoutPercentage",
          "type": "uint256"
        },
        {
          "internalType": "uint256",
          "name": "timestamp",
          "type": "uint256"
        }
      ],
      "stateMutability": "view",
      "type": "function"
    },
    {
      "inputs": [],
      "name": "owner",
      "outputs": [
        {
          "internalType": "address",
          "name": "",
          "type": "address"
        }
      ],
      "stateMutability": "view",
      "type": "function"
    },
    {
      "inputs": [
        {
          "internalType": "uint256",
          "name": "",
          "type": "uint256"
        }
      ],
      "name": "policies",
      "outputs": [
        {
          "internalType": "address",
          "name": "farmer",
          "type": "address"
        },
        {
          "internalType": "address",
          "name": "funder",
          "type": "address"
        },
        {
          "internalType": "uint256",
          "name": "premium",
          "type": "uint256"
        },
        {
          "internalType": "uint256",
          "name": "insuredAmount",
          "type": "uint256"
        },
        {
          "internalType": "uint256",
          "name": "startDate",
          "type": "uint256"
        },
        {
          "internalType": "bool",
          "name": "active",
          "type": "bool"
        },
        {
          "internalType": "bool",
          "name": "paidOut",
          "type": "bool"
        },
        {
          "internalType": "string",
          "name": "farmLocation",
          "type": "string"
        },
        {
          "internalType": "uint256",
          "name": "cropType",
          "type": "uint256"
        }
      ],
      "stateMutability": "view",
      "type": "function"
    },
    {
      "inputs": [],
      "name": "policyCount",
      "outputs": [
        {
          "internalType": "uint256",
          "name": "",
          "type": "uint256"
        }
      ],
      "stateMutability": "view",
      "type": "function"
    },
    {
      "inputs": [],
      "name": "renounceOwnership",
      "outputs": [],
      "stateMutability": "nonpayable",
      "type": "function"
    },
    {
      "inputs": [
        {
          "internalType": "address",
          "name": "oracle",
          "type": "address"
        }
      ],
      "name": "revokeOracle",
      "outputs": [],
      "stateMutability": "nonpayable",
      "type": "function"
    },
    {
      "inputs": [],
      "name": "stableToken",
      "outputs": [
        {
          "internalType": "contract IERC20",
          "name": "",
          "type": "address"
        }
      ],
      "stateMutability": "view",
      "type": "function"
    },
    {
      "inputs": [
        {
          "internalType": "uint256",
          "name": "policyId",
          "type": "uint256"
        },
        {
          "internalType": "uint8",
          "name": "stressLevel",
          "type": "uint8"
        },
        {
          "internalType": "uint256",
          "name": "payoutPercentage",
          "type": "uint256"
        }
      ],
      "name": "submitOracleData",
      "outputs": [],
      "stateMutability": "nonpayable",
      "type": "function"
    },
    {
      "inputs": [],
      "name": "totalPayoutsExecuted",
      "outputs": [
        {
          "internalType": "uint256",
          "name": "",
          "type": "uint256"
        }
      ],
      "stateMutability": "view",
      "type": "function"
    },
    {
      "inputs": [],
      "name": "totalPremiumsCollected",
      "outputs": [
        {
          "internalType": "uint256",
          "name": "",
          "type": "uint256"
        }
      ],
      "stateMutability": "view",
      "type": "function"
    },
    {
      "inputs": [
        {
          "internalType": "address",
          "name": "newOwner",
          "type": "address"
        }
      ],
      "name": "transferOwnership",
      "outputs": [],
      "stateMutability": "nonpayable",
      "type": "function"
    }
  ],
  "bytecode": "0x60806040523480156200001157600080fd5b50604051620032f8380380620032f8833981810160405281019062000037919062000237565b60016000819055506200005f62000053620000ff60201b60201c565b6200010760201b60201c565b80600260006101000a81548173ffffffffffffffffffffffffffffffffffffffff021916908373ffffffffffffffffffffffffffffffffffffffff1602179055506001600560003373ffffffffffffffffffffffffffffffffffffffff1673ffffffffffffffffffffffffffffffffffffffff16815260200190815260200160002060006101000a81548160ff0219169083151502179055505062000269565b600033905090565b6000600160009054906101000a900473ffffffffffffffffffffffffffffffffffffffff16905081600160006101000a81548173ffffffffffffffffffffffffffffffffffffffff021916908373ffffffffffffffffffffffffffffffffffffffff1602179055508173ffffffffffffffffffffffffffffffffffffffff168173ffffffffffffffffffffffffffffffffffffffff167f8be0079c531659141344cd1fd0a4f28419497f9722a3daafe3b4186f6b6457e060405160405180910390a35050565b600080fd5b600073ffffffffffffffffffffffffffffffffffffffff82169050919050565b6000620001ff82620001d2565b9050919050565b6200021181620001f2565b81146200021d57600080fd5b50565b600081519050620002318162000206565b92915050565b60006020828403121562000250576200024f620001cd565b5b6000620002608482850162000220565b91505092915050565b61307f80620002796000396000f3fe608060405234801561001057600080fd5b50600436106101165760003560e01c8063715018a6116100a2578063d3e8948311610071578063d3e89483146102b9578063da3a5f72146102f1578063de54d4291461030d578063f2fde38b1461032b578063fc50d8a81461034757610116565b8063715018a6146102435780638da5cb5b1461024d578063a9d75b2b1461026b578063d3e57ba11461028957610116565b80633dadde20116100e95780633dadde20146101a15780635243aaf6146101bf5780635983e6b0146101db57806361c992a3146101f75780637140dd7b1461022757610116565b80630f13b7631461011b57806321814f901461013757806327c60e16146101535780632b07fce314610171575b600080fd5b61013560048036038101906101309190611aed565b61037a565b005b610151600480360381019061014c9190611b50565b6103dd565b005b61015b610500565b6040516101689190611b8c565b60405180910390f35b61018b60048036038101906101869190611b50565b610506565b6040516101989190611d35565b60405180910390f35b6101a9610721565b6040516101b69190611b8c565b60405180910390f35b6101d960048036038101906101d49190611d90565b610727565b005b6101f560048036038101906101f09190611aed565b610a50565b005b610211600480360381019061020c9190611aed565b610ab3565b60405161021e9190611df2565b60405180910390f35b610241600480360381019061023c9190611f42565b610ad3565b005b61024b610ef2565b005b610255610f06565b6040516102629190611fe8565b60405180910390f35b610273610f30565b6040516102809190612062565b60405180910390f35b6102a3600480360381019061029e9190611b50565b610f56565b6040516102b091906120e1565b60405180910390f35b6102d360048036038101906102ce9190611b50565b610fcf565b6040516102e899989796959493929190612146565b60405180910390f35b61030b60048036038101906103069190611b50565b6110ff565b005b610315611226565b6040516103229190611b8c565b60405180910390f35b61034560048036038101906103409190611aed565b61122c565b005b610361600480360381019061035c9190611b50565b6112af565b60405161037194939291906121e9565b60405180910390f35b6103826112f9565b6001600560008373ffffffffffffffffffffffffffffffffffffffff1673ffffffffffffffffffffffffffffffffffffffff16815260200190815260200160002060006101000a81548160ff02191690831515021790555050565b600560003373ffffffffffffffffffffffffffffffffffffffff1673ffffffffffffffffffffffffffffffffffffffff16815260200190815260200160002060009054906101000a900460ff16610469576040517f08c379a00000000000000000000000000000000000000000000000000000000081526004016104609061227a565b60405180910390fd5b60006004600083815260200190815260200160002090508060000160009054906101000a900460ff166104d1576040517f08c379a00000000000000000000000000000000000000000000000000000000081526004016104c8906122e6565b60405180910390fd5b60018160000160019054906101000a900460ff1660ff16036104fc576104fb828260010154611377565b5b5050565b60085481565b61050e6119d2565b60065482111580156105205750600082115b61055f576040517f08c379a000000000000000000000000000000000000000000000000000000000815260040161055690612352565b60405180910390fd5b60036000838152602001908152602001600020604051806101200160405290816000820160009054906101000a900473ffffffffffffffffffffffffffffffffffffffff1673ffffffffffffffffffffffffffffffffffffffff1673ffffffffffffffffffffffffffffffffffffffff1681526020016001820160009054906101000a900473ffffffffffffffffffffffffffffffffffffffff1673ffffffffffffffffffffffffffffffffffffffff1673ffffffffffffffffffffffffffffffffffffffff1681526020016002820154815260200160038201548152602001600482015481526020016005820160009054906101000a900460ff161515151581526020016005820160019054906101000a900460ff1615151515815260200160068201805461068e906123a1565b80601f01602080910402602001604051908101604052809291908181526020018280546106ba906123a1565b80156107075780601f106106dc57610100808354040283529160200191610707565b820191906000526020600020905b8154815290600101906020018083116106ea57829003601f168201915b505050505081526020016007820154815250509050919050565b60075481565b600560003373ffffffffffffffffffffffffffffffffffffffff1673ffffffffffffffffffffffffffffffffffffffff16815260200190815260200160002060009054906101000a900460ff166107b3576040517f08c379a00000000000000000000000000000000000000000000000000000000081526004016107aa9061227a565b60405180910390fd5b6107bb6118ab565b60065483111580156107cd5750600083115b61080c576040517f08c379a000000000000000000000000000000000000000000000000000000000815260040161080390612352565b60405180910390fd5b60008260ff161480610821575060018260ff16145b610860576040517f08c379a00000000000000000000000000000000000000000000000000000000081526004016108579061241e565b60405180910390fd5b620f42408111156108a6576040517f08c379a000000000000000000000000000000000000000000000000000000000815260040161089d906124b0565b60405180910390fd5b60006003600085815260200190815260200160002090508060050160009054906101000a900460ff1661090e576040517f08c379a00000000000000000000000000000000000000000000000000000000081526004016109059061251c565b60405180910390fd5b8060050160019054906101000a900460ff1615610960576040517f08c379a000000000000000000000000000000000000000000000000000000000815260040161095790612588565b60405180910390fd5b60405180608001604052806001151581526020018460ff168152602001838152602001428152506004600086815260200190815260200160002060008201518160000160006101000a81548160ff02191690831515021790555060208201518160000160016101000a81548160ff021916908360ff1602179055506040820151816001015560608201518160020155905050837f55454aedfcb7f4565e276cd58da524126312df11a611d8e840db905e30462ac18484604051610a249291906125a8565b60405180910390a260018360ff1603610a4257610a418483611377565b5b50610a4b6118fa565b505050565b610a586112f9565b6000600560008373ffffffffffffffffffffffffffffffffffffffff1673ffffffffffffffffffffffffffffffffffffffff16815260200190815260200160002060006101000a81548160ff02191690831515021790555050565b60056020528060005260406000206000915054906101000a900460ff1681565b610adb6118ab565b600073ffffffffffffffffffffffffffffffffffffffff168573ffffffffffffffffffffffffffffffffffffffff1603610b4a576040517f08c379a0000000000000000000000000000000000000000000000000000000008152600401610b419061261d565b60405180910390fd5b60008411610b8d576040517f08c379a0000000000000000000000000000000000000000000000000000000008152600401610b8490612689565b60405180910390fd5b60008111610bd0576040517f08c379a0000000000000000000000000000000000000000000000000000000008152600401610bc7906126f5565b60405180910390fd5b600260009054906101000a900473ffffffffffffffffffffffffffffffffffffffff1673ffffffffffffffffffffffffffffffffffffffff166323b872dd3330846040518463ffffffff1660e01b8152600401610c2f93929190612715565b6020604051808303816000875af1158015610c4e573d6000803e3d6000fd5b505050506040513d601f19601f82011682018060405250810190610c729190612778565b610cb1576040517f08c379a0000000000000000000000000000000000000000000000000000000008152600401610ca8906127f1565b60405180910390fd5b60066000815480929190610cc490612840565b91905055506040518061012001604052808673ffffffffffffffffffffffffffffffffffffffff1681526020013373ffffffffffffffffffffffffffffffffffffffff1681526020018281526020018581526020014281526020016001151581526020016000151581526020018481526020018381525060036000600654815260200190815260200160002060008201518160000160006101000a81548173ffffffffffffffffffffffffffffffffffffffff021916908373ffffffffffffffffffffffffffffffffffffffff16021790555060208201518160010160006101000a81548173ffffffffffffffffffffffffffffffffffffffff021916908373ffffffffffffffffffffffffffffffffffffffff16021790555060408201518160020155606082015181600301556080820151816004015560a08201518160050160006101000a81548160ff02191690831515021790555060c08201518160050160016101000a81548160ff02191690831515021790555060e0820151816006019081610e519190612a2a565b5061010082015181600701559050508060076000828254610e729190612afc565b925050819055503373ffffffffffffffffffffffffffffffffffffffff168573ffffffffffffffffffffffffffffffffffffffff166006547f19a13feb18c4c951c640ce679aa0896b134e6f78c56d5411d93bc8d678f4d0fa8787604051610edb929190612b30565b60405180910390a4610eeb6118fa565b5050505050565b610efa6112f9565b610f046000611904565b565b6000600160009054906101000a900473ffffffffffffffffffffffffffffffffffffffff16905090565b600260009054906101000a900473ffffffffffffffffffffffffffffffffffffffff1681565b610f5e611a4e565b600460008381526020019081526020016000206040518060800160405290816000820160009054906101000a900460ff161515151581526020016000820160019054906101000a900460ff1660ff1660ff168152602001600182015481526020016002820154815250509050919050565b60036020528060005260406000206000915090508060000160009054906101000a900473ffffffffffffffffffffffffffffffffffffffff16908060010160009054906101000a900473ffffffffffffffffffffffffffffffffffffffff16908060020154908060030154908060040154908060050160009054906101000a900460ff16908060050160019054906101000a900460ff1690806006018054611076906123a1565b80601f01602080910402602001604051908101604052809291908181526020018280546110a2906123a1565b80156110ef5780601f106110c4576101008083540402835291602001916110ef565b820191906000526020600020905b8154815290600101906020018083116110d257829003601f168201915b5050505050908060070154905089565b60008111611142576040517f08c379a000000000000000000000000000000000000000000000000000000000815260040161113990612bac565b60405180910390fd5b600260009054906101000a900473ffffffffffffffffffffffffffffffffffffffff1673ffffffffffffffffffffffffffffffffffffffff166323b872dd3330846040518463ffffffff1660e01b81526004016111a193929190612715565b6020604051808303816000875af11580156111c0573d6000803e3d6000fd5b505050506040513d601f19601f820116820180604052508101906111e49190612778565b611223576040517f08c379a000000000000000000000000000000000000000000000000000000000815260040161121a90612c18565b60405180910390fd5b50565b60065481565b6112346112f9565b600073ffffffffffffffffffffffffffffffffffffffff168173ffffffffffffffffffffffffffffffffffffffff16036112a3576040517f08c379a000000000000000000000000000000000000000000000000000000000815260040161129a90612caa565b60405180910390fd5b6112ac81611904565b50565b60046020528060005260406000206000915090508060000160009054906101000a900460ff16908060000160019054906101000a900460ff16908060010154908060020154905084565b6113016119ca565b73ffffffffffffffffffffffffffffffffffffffff1661131f610f06565b73ffffffffffffffffffffffffffffffffffffffff1614611375576040517f08c379a000000000000000000000000000000000000000000000000000000000815260040161136c90612d16565b60405180910390fd5b565b600060036000848152602001908152602001600020905060008160030154036115585760008160050160006101000a81548160ff02191690831515021790555060018160050160016101000a81548160ff021916908315150217905550600260009054906101000a900473ffffffffffffffffffffffffffffffffffffffff1673ffffffffffffffffffffffffffffffffffffffff1663a9059cbb8260000160009054906101000a900473ffffffffffffffffffffffffffffffffffffffff1683600201546040518363ffffffff1660e01b8152600401611459929190612d36565b6020604051808303816000875af1158015611478573d6000803e3d6000fd5b505050506040513d601f19601f8201168201806040525081019061149c9190612778565b6114db576040517f08c379a00000000000000000000000000000000000000000000000000000000081526004016114d290612dab565b60405180910390fd5b8060000160009054906101000a900473ffffffffffffffffffffffffffffffffffffffff1673ffffffffffffffffffffffffffffffffffffffff16837fbeaa99d72a600712e4656a7da04b2cabe31fb50fbf8f5b5f96513b0a4f495c1a836002015460405161154a9190611b8c565b60405180910390a3506118a7565b6000620f424083836003015461156e9190612dcb565b6115789190612e3c565b9050600081036115fd578160000160009054906101000a900473ffffffffffffffffffffffffffffffffffffffff1673ffffffffffffffffffffffffffffffffffffffff16847fbeaa99d72a600712e4656a7da04b2cabe31fb50fbf8f5b5f96513b0a4f495c1a60006040516115ee9190612ea8565b60405180910390a350506118a7565b80600260009054906101000a900473ffffffffffffffffffffffffffffffffffffffff1673ffffffffffffffffffffffffffffffffffffffff166370a08231306040518263ffffffff1660e01b81526004016116599190611fe8565b602060405180830381865afa158015611676573d6000803e3d6000fd5b505050506040513d601f19601f8201168201806040525081019061169a9190612ed8565b10156116db576040517f08c379a00000000000000000000000000000000000000000000000000000000081526004016116d290612f51565b60405180910390fd5b60008260050160006101000a81548160ff02191690831515021790555060018260050160016101000a81548160ff02191690831515021790555080600860008282546117279190612afc565b92505081905550600260009054906101000a900473ffffffffffffffffffffffffffffffffffffffff1673ffffffffffffffffffffffffffffffffffffffff1663a9059cbb8360000160009054906101000a900473ffffffffffffffffffffffffffffffffffffffff16836040518363ffffffff1660e01b81526004016117af929190612d36565b6020604051808303816000875af11580156117ce573d6000803e3d6000fd5b505050506040513d601f19601f820116820180604052508101906117f29190612778565b611831576040517f08c379a000000000000000000000000000000000000000000000000000000000815260040161182890612fbd565b60405180910390fd5b8160000160009054906101000a900473ffffffffffffffffffffffffffffffffffffffff1673ffffffffffffffffffffffffffffffffffffffff16847fbeaa99d72a600712e4656a7da04b2cabe31fb50fbf8f5b5f96513b0a4f495c1a8360405161189c9190611b8c565b60405180910390a350505b5050565b6002600054036118f0576040517f08c379a00000000000000000000000000000000000000000000000000000000081526004016118e790613029565b60405180910390fd5b6002600081905550565b6001600081905550565b6000600160009054906101000a900473ffffffffffffffffffffffffffffffffffffffff16905081600160006101000a81548173ffffffffffffffffffffffffffffffffffffffff021916908373ffffffffffffffffffffffffffffffffffffffff1602179055508173ffffffffffffffffffffffffffffffffffffffff168173ffffffffffffffffffffffffffffffffffffffff167f8be0079c531659141344cd1fd0a4f28419497f9722a3daafe3b4186f6b6457e060405160405180910390a35050565b600033905090565b604051806101200160405280600073ffffffffffffffffffffffffffffffffffffffff168152602001600073ffffffffffffffffffffffffffffffffffffffff16815260200160008152602001600081526020016000815260200160001515815260200160001515815260200160608152602001600081525090565b6040518060800160405280600015158152602001600060ff16815260200160008152602001600081525090565b6000604051905090565b600080fd5b600080fd5b600073ffffffffffffffffffffffffffffffffffffffff82169050919050565b6000611aba82611a8f565b9050919050565b611aca81611aaf565b8114611ad557600080fd5b50565b600081359050611ae781611ac1565b92915050565b600060208284031215611b0357611b02611a85565b5b6000611b1184828501611ad8565b91505092915050565b6000819050919050565b611b2d81611b1a565b8114611b3857600080fd5b50565b600081359050611b4a81611b24565b92915050565b600060208284031215611b6657611b65611a85565b5b6000611b7484828501611b3b565b91505092915050565b611b8681611b1a565b82525050565b6000602082019050611ba16000830184611b7d565b92915050565b611bb081611aaf565b82525050565b611bbf81611b1a565b82525050565b60008115159050919050565b611bda81611bc5565b82525050565b600081519050919050565b600082825260208201905092915050565b60005b83811015611c1a578082015181840152602081019050611bff565b60008484015250505050565b6000601f19601f8301169050919050565b6000611c4282611be0565b611c4c8185611beb565b9350611c5c818560208601611bfc565b611c6581611c26565b840191505092915050565b600061012083016000830151611c896000860182611ba7565b506020830151611c9c6020860182611ba7565b506040830151611caf6040860182611bb6565b506060830151611cc26060860182611bb6565b506080830151611cd56080860182611bb6565b5060a0830151611ce860a0860182611bd1565b5060c0830151611cfb60c0860182611bd1565b5060e083015184820360e0860152611d138282611c37565b915050610100830151611d2a610100860182611bb6565b508091505092915050565b60006020820190508181036000830152611d4f8184611c70565b905092915050565b600060ff82169050919050565b611d6d81611d57565b8114611d7857600080fd5b50565b600081359050611d8a81611d64565b92915050565b600080600060608486031215611da957611da8611a85565b5b6000611db786828701611b3b565b9350506020611dc886828701611d7b565b9250506040611dd986828701611b3b565b9150509250925092565b611dec81611bc5565b82525050565b6000602082019050611e076000830184611de3565b92915050565b600080fd5b600080fd5b7f4e487b7100000000000000000000000000000000000000000000000000000000600052604160045260246000fd5b611e4f82611c26565b810181811067ffffffffffffffff82111715611e6e57611e6d611e17565b5b80604052505050565b6000611e81611a7b565b9050611e8d8282611e46565b919050565b600067ffffffffffffffff821115611ead57611eac611e17565b5b611eb682611c26565b9050602081019050919050565b82818337600083830152505050565b6000611ee5611ee084611e92565b611e77565b905082815260208101848484011115611f0157611f00611e12565b5b611f0c848285611ec3565b509392505050565b600082601f830112611f2957611f28611e0d565b5b8135611f39848260208601611ed2565b91505092915050565b600080600080600060a08688031215611f5e57611f5d611a85565b5b6000611f6c88828901611ad8565b9550506020611f7d88828901611b3b565b945050604086013567ffffffffffffffff811115611f9e57611f9d611a8a565b5b611faa88828901611f14565b9350506060611fbb88828901611b3b565b9250506080611fcc88828901611b3b565b9150509295509295909350565b611fe281611aaf565b82525050565b6000602082019050611ffd6000830184611fd9565b92915050565b6000819050919050565b600061202861202361201e84611a8f565b612003565b611a8f565b9050919050565b600061203a8261200d565b9050919050565b600061204c8261202f565b9050919050565b61205c81612041565b82525050565b60006020820190506120776000830184612053565b92915050565b61208681611d57565b82525050565b6080820160008201516120a26000850182611bd1565b5060208201516120b5602085018261207d565b5060408201516120c86040850182611bb6565b5060608201516120db6060850182611bb6565b50505050565b60006080820190506120f6600083018461208c565b92915050565b600082825260208201905092915050565b600061211882611be0565b61212281856120fc565b9350612132818560208601611bfc565b61213b81611c26565b840191505092915050565b60006101208201905061215c600083018c611fd9565b612169602083018b611fd9565b612176604083018a611b7d565b6121836060830189611b7d565b6121906080830188611b7d565b61219d60a0830187611de3565b6121aa60c0830186611de3565b81810360e08301526121bc818561210d565b90506121cc610100830184611b7d565b9a9950505050505050505050565b6121e381611d57565b82525050565b60006080820190506121fe6000830187611de3565b61220b60208301866121da565b6122186040830185611b7d565b6122256060830184611b7d565b95945050505050565b7f4e6f7420617574686f72697a6564206f7261636c650000000000000000000000600082015250565b60006122646015836120fc565b915061226f8261222e565b602082019050919050565b6000602082019050818103600083015261229381612257565b9050919050565b7f4e6f206f7261636c652064617461000000000000000000000000000000000000600082015250565b60006122d0600e836120fc565b91506122db8261229a565b602082019050919050565b600060208201905081810360008301526122ff816122c3565b9050919050565b7f496e76616c696420706f6c696379204944000000000000000000000000000000600082015250565b600061233c6011836120fc565b915061234782612306565b602082019050919050565b6000602082019050818103600083015261236b8161232f565b9050919050565b7f4e487b7100000000000000000000000000000000000000000000000000000000600052602260045260246000fd5b600060028204905060018216806123b957607f821691505b6020821081036123cc576123cb612372565b5b50919050565b7f537472657373206c6576656c206d7573742062652030206f7220310000000000600082015250565b6000612408601b836120fc565b9150612413826123d2565b602082019050919050565b60006020820190508181036000830152612437816123fb565b9050919050565b7f7061796f757450657263656e74616765206d617820697320313030252028316560008201527f3629000000000000000000000000000000000000000000000000000000000000602082015250565b600061249a6022836120fc565b91506124a58261243e565b604082019050919050565b600060208201905081810360008301526124c98161248d565b9050919050565b7f506f6c696379206e6f7420616374697665000000000000000000000000000000600082015250565b60006125066011836120fc565b9150612511826124d0565b602082019050919050565b60006020820190508181036000830152612535816124f9565b9050919050565b7f416c72656164792070616964206f757400000000000000000000000000000000600082015250565b60006125726010836120fc565b915061257d8261253c565b602082019050919050565b600060208201905081810360008301526125a181612565565b9050919050565b60006040820190506125bd60008301856121da565b6125ca6020830184611b7d565b9392505050565b7f496e76616c6964206661726d6572206164647265737300000000000000000000600082015250565b60006126076016836120fc565b9150612612826125d1565b602082019050919050565b60006020820190508181036000830152612636816125fa565b9050919050565b7f496e76616c696420696e737572656420616d6f756e7400000000000000000000600082015250565b60006126736016836120fc565b915061267e8261263d565b602082019050919050565b600060208201905081810360008301526126a281612666565b9050919050565b7f496e76616c6964207072656d69756d20616d6f756e7400000000000000000000600082015250565b60006126df6016836120fc565b91506126ea826126a9565b602082019050919050565b6000602082019050818103600083015261270e816126d2565b9050919050565b600060608201905061272a6000830186611fd9565b6127376020830185611fd9565b6127446040830184611b7d565b949350505050565b61275581611bc5565b811461276057600080fd5b50565b6000815190506127728161274c565b92915050565b60006020828403121561278e5761278d611a85565b5b600061279c84828501612763565b91505092915050565b7f5072656d69756d207472616e73666572206661696c6564000000000000000000600082015250565b60006127db6017836120fc565b91506127e6826127a5565b602082019050919050565b6000602082019050818103600083015261280a816127ce565b9050919050565b7f4e487b7100000000000000000000000000000000000000000000000000000000600052601160045260246000fd5b600061284b82611b1a565b91507fffffffffffffffffffffffffffffffffffffffffffffffffffffffffffffffff820361287d5761287c612811565b5b600182019050919050565b60008190508160005260206000209050919050565b60006020601f8301049050919050565b600082821b905092915050565b6000600883026128ea7fffffffffffffffffffffffffffffffffffffffffffffffffffffffffffffffff826128ad565b6128f486836128ad565b95508019841693508086168417925050509392505050565b600061292761292261291d84611b1a565b612003565b611b1a565b9050919050565b6000819050919050565b6129418361290c565b61295561294d8261292e565b8484546128ba565b825550505050565b600090565b61296a61295d565b612975818484612938565b505050565b5b818110156129995761298e600082612962565b60018101905061297b565b5050565b601f8211156129de576129af81612888565b6129b88461289d565b810160208510156129c7578190505b6129db6129d38561289d565b83018261297a565b50505b505050565b600082821c905092915050565b6000612a01600019846008026129e3565b1980831691505092915050565b6000612a1a83836129f0565b9150826002028217905092915050565b612a3382611be0565b67ffffffffffffffff811115612a4c57612a4b611e17565b5b612a5682546123a1565b612a6182828561299d565b600060209050601f831160018114612a945760008415612a82578287015190505b612a8c8582612a0e565b865550612af4565b601f198416612aa286612888565b60005b82811015612aca57848901518255600182019150602085019450602081019050612aa5565b86831015612ae75784890151612ae3601f8916826129f0565b8355505b6001600288020188555050505b505050505050565b6000612b0782611b1a565b9150612b1283611b1a565b9250828201905080821115612b2a57612b29612811565b5b92915050565b6000604082019050612b456000830185611b7d565b8181036020830152612b57818461210d565b90509392505050565b7f496e76616c696420616d6f756e74000000000000000000000000000000000000600082015250565b6000612b96600e836120fc565b9150612ba182612b60565b602082019050919050565b60006020820190508181036000830152612bc581612b89565b9050919050565b7f46756e64696e67207472616e73666572206661696c6564000000000000000000600082015250565b6000612c026017836120fc565b9150612c0d82612bcc565b602082019050919050565b60006020820190508181036000830152612c3181612bf5565b9050919050565b7f4f776e61626c653a206e6577206f776e657220697320746865207a65726f206160008201527f6464726573730000000000000000000000000000000000000000000000000000602082015250565b6000612c946026836120fc565b9150612c9f82612c38565b604082019050919050565b60006020820190508181036000830152612cc381612c87565b9050919050565b7f4f776e61626c653a2063616c6c6572206973206e6f7420746865206f776e6572600082015250565b6000612d006020836120fc565b9150612d0b82612cca565b602082019050919050565b60006020820190508181036000830152612d2f81612cf3565b9050919050565b6000604082019050612d4b6000830185611fd9565b612d586020830184611b7d565b9392505050565b7f5072656d69756d20726566756e64206661696c65640000000000000000000000600082015250565b6000612d956015836120fc565b9150612da082612d5f565b602082019050919050565b60006020820190508181036000830152612dc481612d88565b9050919050565b6000612dd682611b1a565b9150612de183611b1a565b9250828202612def81611b1a565b91508282048414831517612e0657612e05612811565b5b5092915050565b7f4e487b7100000000000000000000000000000000000000000000000000000000600052601260045260246000fd5b6000612e4782611b1a565b9150612e5283611b1a565b925082612e6257612e61612e0d565b5b828204905092915050565b6000819050919050565b6000612e92612e8d612e8884612e6d565b612003565b611b1a565b9050919050565b612ea281612e77565b82525050565b6000602082019050612ebd6000830184612e99565b92915050565b600081519050612ed281611b24565b92915050565b600060208284031215612eee57612eed611a85565b5b6000612efc84828501612ec3565b91505092915050565b7f496e73756666696369656e7420706f6f6c2062616c616e636500000000000000600082015250565b6000612f3b6019836120fc565b9150612f4682612f05565b602082019050919050565b60006020820190508181036000830152612f6a81612f2e565b9050919050565b7f5061796f7574207472616e73666572206661696c656400000000000000000000600082015250565b6000612fa76016836120fc565b9150612fb282612f71565b602082019050919050565b60006020820190508181036000830152612fd681612f9a565b9050919050565b7f5265656e7472616e637947756172643a207265656e7472616e742063616c6c00600082015250565b6000613013601f836120fc565b915061301e82612fdd565b602082019050919050565b6000602082019050818103600083015261304281613006565b905091905056fea2646970667358221220389c6981421dd88a75c0a30c7863be8001c6f89f7bd8a5d380942c5da29313d464736f6c63430008130033",
  "linkReferences": {},
  "deployedLinkReferences": {}
}